:020000040800F2
:1000000060170020450100084B070008F9050008AB
:1000100049070008D5010008E11F000800000000A2
:10002000000000000000000000000000411D00086A
:10003000EF03000800000000ED070008ED1D0008B8
:100040005F0100085F0100085F0100085F01000810
:100050005F0100085F0100085F0100085F01000800
:100060005F0100085F0100085F0100085F010008F0
:100070005F0100085F0100085F0100085F010008E0
:100080005F0100085F0100085F0100085F010008D0
:100090005F0100085F0100085F0100085F010008C0
:1000A0005F0100085F0100085F0100085F010008B0
:1000B0005F0100085F0100085F0100085F010008A0
:1000C0005F0100085F0100085F0100085F01000890
:1000D0005F0100085F0100085F0100085F01000880
:1000E0005F0100085F0100085F0100085F01000870
:1000F0005F0100085F0100085F0100085F01000860
:100100005F010008D90C00085F0100085F010008CA
:100110005F0100085F0100085F0100085F0100083F
:100120005F0100085F0100085F0100085F0100082F
:10013000DFF80CD000F03CF8004800475D340008C0
:10014000601700200648804706480047FEE7FEE7A4
:10015000FEE7FEE7FEE7FEE7FEE7FEE7FEE7FEE777
:10016000F11D000831010008D2B201E000F8012BB6
:10017000491EFBD270470022F6E710B513460A4627
:1001800004461946FFF7F0FF204610BD30B505467E
:100190002A460B4612F8010B13F8014B08B1A04296
:1001A000F8D01CB1002802D06D1CF1E7284630BD04
:1001B000064C074D06E0E06840F0010394E80700B4
:1001C00098471034AC42F6D3FFF7B6FF64E4020858
:1001D00084E40208FEE7000070B5374905462A248A
:1001E000486B10F0450FFBD0410702D503240420D3
:1001F00003E0C00704D00124204600F003FD59E0CD
:1002000000F040FDA8422BD140F2FF5000F0FAFC74
:10021000002000F059FD294908424BD0002801DA9E
:100220001C2070BD410001D5092070BD810001D5A1
:100230000A2070BDC10001D50B2070BD010101D5A0
:100240000C2070BD410101D50D2070BDC10101D54B
:100250000E2070BD010201D50F2070BD410201D5F5
:10026000102070BD810201D5112070BDC10201D5E1
:10027000122070BD010301D5132070BD410301D5CB
:10028000142070BD810301D5152070BDC10301D5B7
:10029000162070BD010401D5172070BD410401D5A1
:1002A000182070BD810401D5192070BD000701D54B
:1002B0001A2070BD204670BD0080014008E0FFFD9F
:1002C00010B50B482A24416B11F0450FFBD04807AD
:1002D00002D50324042003E0C80705D001242046EA
:1002E00000F090FC204610BD40F2FF50F8E70000FF
:1002F0000080014070B50C46194906462A25486B16
:1003000010F0450FFBD0410702D50324042003E081
:10031000C00705D00124204600F074FC204670BDC3
:1003200000F0B0FCB04212D140F2FF5000F06AFC85
:10033000002000F0C9FC10F4604F03D0810404D504
:10034000132070BD000C208007E0410401D510206F
:1003500070BD000401D50F2070BD284670BD00009F
:1003600000800140C10002D502490860704702497F
:100370004860704704040240000002400029016800
:1003800002D041F0010102E04FF6FE72114001601F
:100390007047000001460020CA0001D5034A00E072
:1003A000034A12680A4200D001207047000402404C
:1003B0000000024030B5036847F6F07293430C6AC0
:1003C0008A682243D1E904452C4322438C692243A5
:1003D000CC6922434C6A22438C6A22431A4302604E
:1003E000CA6842600A6882604968C16030BD70476F
:1003F00001B503480099416041680029FCD108BD5E
:10040000000000202DE9FC5F0025494C00954FF4C9
:10041000806801954027C4F81080C4E902750E4633
:100420004FF0080B1021C4E900B1A946204600F0A6
:100430007DFC1020FFF7D0FE2A284DD13D48BA465A
:100440004F460089000420603720C4E9010AC4E94E
:100450000398204600F06AFC3720FFF7BDFE2A28EB
:100460003AD104F114003449C0E9001B3021816005
:100470000221C0E903170121416100F0DBFB3320B9
:10048000C4F808A0C4E90070C4E90378204600F06D
:100490004DFC3320FFF7A0FE04462A281CD1274F2D
:1004A0004FF4001AE94640F22A68786B10EA080F08
:1004B0000AD1504600F0ECFB0028F6D000F030FCEA
:1004C00049F825006D1CF0E7082000F0E1FB28B199
:1004D000082000F097FB0420BDE8FC9F022000F0FC
:1004E000D7FB20B1022000F08DFB0220F4E7202092
:1004F00000F0CEFB20B1202000F084FB0620EBE7CB
:100500004FF40075284600F0C3FB20B1284600F0E8
:1005100079FB0720E0E740F2FF5000F073FB009802
:1005200000BA7060019800BA30602046D4E700003D
:100530003011002010000020FFFF0F00008001405C
:10054000F0B5CA78002502F00F03D20601D58A78EB
:1005500013430A784FF00F0E12F0FF0F4FF0010215
:100560001CD004680F8802FA05F63740B74211D153
:100570004FEA850C0EFA0CF724EA070703FA0CF48D
:100580003C43CF78282F02D0482F02D002E04661AA
:1005900000E006616D1C082DE4D304600C88FF2C7C
:1005A0001ED944685FF0000606F1080702FA07F555
:1005B0000F882F40AF420FD14FEA860C0EFA0CF78E
:1005C000BC4303FA0CF73C43CF78282F00D1456198
:1005D000CF78482F00D10561761C082EE4D3446003
:1005E000F0BD0246002092680A4200D00120704708
:1005F0004161704701617047FEE700007CB5044629
:1006000000224D480092019200894C4900042A259D
:1006100008600D2048604020C1E902020001086125
:10062000084600F083FB4648416B019111F0450FED
:10063000FAD00198400702D50324042004E0019871
:10064000C00705D00124204600F0DCFA20467CBD1E
:1006500000F018FB01900D2838D140F2FF5000F057
:10066000D1FA002000F030FB0090C0F3432020704E
:100670003449009808425DD00098002801DA1C2017
:100680007CBD400001D509207CBD0098800001D5CB
:100690000A207CBD0098C00001D50B207CBD0098CD
:1006A000000101D50C207CBD0098400101D50D2032
:1006B0007CBD0098C00101D50E207CBD00980002D1
:1006C00001D50F207CBD0098400201D510207CBDD3
:1006D0000098800201D511207CBD0098C00201D590
:1006E00012207CBD0098000301D513207CBD00982A
:1006F000400301D514207CBD0098800301D515204E
:100700007CBD0098C00301D516207CBD0098000474
:1007100001D517207CBD0098400401D518207CBD70
:100720000098800401D519207CBD0098000701D5F0
:100730001A207CBD28467CBD10000020301100200E
:100740000080014008E0FFFDFEE7704708B54FF468
:10075000C06000F041F831208DF8000000208DF8D5
:1007600001008DF8020001208DF80300684600F0BA
:1007700001F808BD70B50F23C47801780122F4B1E7
:10078000144C2468457804F4E064C4F5E064240A59
:10079000C4F10406E3408478B5401C402C4301F1C9
:1007A000E021230181F80034007800F01F018A4025
:1007B0004009800000F1E020C0F8002170BD01F088
:1007C0001F0082404809800000F1E020C0F880212D
:1007D00070BD00000CED00E00249084302490860CA
:1007E000704700000000FA050CED00E070470000C3
:1007F0002DE9F04F9FB0342109A8FFF7BCFC7248E7
:10080000079040F2FF100025089042F2107BA846A6
:100810006EA1784801F086FB002002F050FA01F04A
:1008200097FC7549002002F06DFA09A916A802F09C
:1008300019FB0DF10D014FF4007A009100287CD0D6
:100840001FB0BDE8F08F00BF9DF80C00800674D586
:100850009DF80D000028F3D007980078B0B167A18B
:100860006448079A01F05EFB69A10798FFF78EFCC8
:10087000044669A10798FFF789FC074668A1079815
:10088000FFF784FC064668A1079815E05BA159486C
:10089000009A01F047FB5EA10098FFF777FC044641
:1008A0005DA10098FFF772FC07465DA10098FFF775
:1008B0006DFC06465CA10098FFF768FC3C4334439E
:1008C000044379D00798007810B10122079901E01C
:1008D00000990122564802F025FA5649487056A15F
:1008E000444801F01FFB534C0120A0605648C168EA
:1008F00021F04001C1604F4B5246083353494C48E8
:1009000002F0E2FA6070C0BB00264FF47A70FFF785
:100910006FFD80214C48FFF764FE38B3DFF82C915F
:10092000002700BF19F8060001F0D2FB7F1CFFB2C0
:10093000761C202FF6D31DB900E03DE04FF00108F2
:100940005D4502D14FF0000808E0B8F1010F03D077
:10095000B8F1000F02D002E06D1C00E06D1E4FF4F4
:10096000FA70B5FBF0F0C0B201F08CFB607820B9F2
:10097000A06810B15645CCD3BDE7FFE7DFF8C890BB
:1009800000264FF4006780214846FFF72AFE40B159
:100990000024002001F09CFB641CE4B2761C202C97
:1009A000F7D3BE42EFD3D9F80C1041F04001C9F89B
:1009B0000C101F4802F09DF901A916A802F02CFBAB
:1009C00000283FF441AF3BE7540000200ACEC4BCEE
:1009D000FECFB5CDB32854696E692D466174465378
:1009E000302E30396129C6F4B6AFB3C9B9A621207B
:1009F0000A00000000380140A40A00200D0ACEC4FD
:100A0000BCFEC3FBCAC73A0A20202025730A000097
:100A10002E6D7033000000002E6D69640000000030
:100A20002E776176000000002E776D6100000000D7
:100A3000D40C0020000000200D0A20506C61796960
:100A40006E672E2E2E00000000100140F80E0020D0
:100A5000044A0029516901D0014300E081435161FA
:100A60007047000000100240044A0029D16901D0FB
:100A7000014300E08143D161704700000010024053
:100A8000044A0029916901D0014300E0814391614A
:100A9000704700000010024010B501F0A9F90121D3
:100AA0000846FFF7EDFF0121BDE810407C20FFF76D
:100AB000E7BF000030B51F494A6812F00C031E4A18
:100AC00003D0042B01D0082B21D002604A680F23E9
:100AD0001A4C03EA1212A35C0268DA4042604B68C7
:100AE000072505EA1323E35C22FA03F383604B68CE
:100AF00005EAD323E35CDA40C2604968032303EAD2
:100B00009131231F595CB2FBF1F1016130BD4A689C
:100B10004B6802F470124FF0020413F4803F04EBB0
:100B2000924202D04B689B0301D5054B00E0024B7B
:100B30005A43CAE70010024000127A003C0000202D
:100B400000093D002DE9FC47002580460095284618
:100B5000019500F0B9F8800102D50E20BDE8FC87B0
:100B6000264F6946388980B2FFF74CFC2A28F5D118
:100B70003720234C402601994FF0060A4FF4806934
:100B8000B8F1010F1FD0C90335D53989C4F81090C9
:100B90000904C4E90010C4E90265204600F0C6F863
:100BA0003720FFF719FB2A28D8D1C4E9005AC4F826
:100BB000109000BFC4E90265114800F0B7F80620A4
:100BC000FFF70AFBCAE7490315D53989C4F8109025
:100BD0000904C4E90010C4E90265094800F0A6F858
:100BE0003720FFF7F9FA2A28B8D10220C4F810906C
:100BF000C4E9000ADEE72520B0E70000100000206D
:100C000030110020014988637047000000800140D6
:100C10000149886370470000008001400149C1F824
:100C2000A000704700003042014908607047000092
:100C30008C05304210B5094A0168516241689162E1
:100C4000D16A21F0F703D0E902142143D0E904402E
:100C5000044321431943D16210BD000000800140CC
:100C600006480021016041608160C160416281628B
:100C7000C162034A8263C163704700000080014083
:100C8000FF07C00001480069C0B270470080014002
:100C9000034A01460020526B0A4200D001207047EF
:100CA00000800140034A01460020526B0A4200D0F6
:100CB00001207047008001400248006800F00300F6
:100CC000704700000080014008B5024908440090C8
:100CD000006808BD1480014000F0D2BB044A00291E
:100CE000D16B01D0014300E08143D1637047000024
:100CF0000080014030B5094B5A6847F6FF618A43CE
:100D0000017D8468C568214344682C4321430468FD
:100D10000069214301431143596030BD0080014007
:100D20000148D0F8800070470080014010B5084AA3
:100D300001689160D168CB0AD0E901142143D0E960
:100D400003400443DB0221431943D16010BD00007E
:100D50000080014004490A6822F003020A600A6820
:100D600002430A6070470000008001400149C1F859
:100D700080007047008001400148FFF70BBB000076
:100D8000002000102DE9F04101461A482A2640684B
:100D9000032815D018B1012801D0022828D1B1F5B7
:100DA000805F0DD04FF4006800250127124C4145AB
:100DB0000FD10120FFF7C6FE06462A2803D017E010
:100DC0002720BDE8F081277525606560C4E90258D9
:100DD0000AE00020FFF7B6FE06462A2808D127754C
:100DE00025606560A560E56003482561FFF782FF27
:100DF0003046E6E710000020181100202DE9F047EA
:100E00008E49DFF83C824FF02A0C4D6880F84E5036
:100E10000989A0F84C10D8F800100A0E9309037045
:100E2000C2F38303437002F0030282700A0CC270A3
:100E30000A0A02714171D8F80440210E0901C180EB
:100E4000C288C4F3074142EA1112C28001F00F01C7
:100E50000172C4F30721CA094272C1F3801282727F
:100E6000C1F34012C272C1F3001202734FF00009C5
:100E700080F80D9042464FF0010A9668330EC6F393
:100E80000742C6F3072725B1012D02D0022D2BD032
:100E90003CE08907090D0161E1B2046944EA81017E
:100EA0000161016941EA93110161C3F3C201017556
:100EB00003F00701417551098175C2F38201C175C3
:100EC0009107490F0176027E394642EAD112027635
:100ED0000269037E521C9B1C047A9A400AFA04F3AE
:100EE0005A43C0E9112311E0A106890A0161016991
:100EF00041EA032101610169114301610269394637
:100F0000521CD20442644FF400728264C1F3801216
:100F100042768906490E00F81A1FF1B210F8022B2A
:100F200042EAD11200F8022C01F07F0100F8011C06
:100F3000D8F80C20110ECB090370C1F34113437094
:100F4000C1F3820383708907090FC170C378C2F3AC
:100F5000074143EA9113C370C1F34013037180F852
:100F6000059001F001018171C2F30721CB09C37122
:100F7000C1F380130372C1F340134372C1F3001332
:100F80008372C1F38103C37201F003010173C2F3E1
:100F900046014173534680F80EA0294A1032116869
:100FA0000C0E04740C0C24024482458AC1F30724FD
:100FB0002543458209064161516845690C0E45EAA1
:100FC000044444614569C1F3074445EA042444618B
:100FD0004569C1F3072425434561017691680C0EEC
:100FE00044760C0C2406C461C569C1F3072445EAA4
:100FF0000444C461C469C9B244EA0121C161D16831
:10100000C46944EA1164C46190F82040C1F3074206
:1010100044EA121480F820401207120D4284448CD6
:10102000C1F3072214434484C1F3460180F824101D
:1010300080F825306046BDE8F087000010000020F1
:10104000F810002010B500F015F9FFF709FE00F0C8
:1010500045F92A2826D100F02BF82A2822D1124857
:10106000012101750021016041608160C160016161
:10107000FFF740FE0D48FFF7C1FE2A2812D10B48AA
:10108000B0F84C00000400F0D1FB2A280AD14FF43C
:101090000060FFF777FE2A2804D1BDE81040002049
:1010A00000F0DABB10BD000018110020540200202F
:1010B0002DE9F84F01202A25ADF80000FFF7FCFDCF
:1010C000B8B3DFF8EC90D9F8040004286DD0394C9F
:1010D0004FF0C00A00260220C4F808A0C4E900604E
:1010E0004FF48068C4E903682046FFF71FFEFFF74E
:1010F000E7F805462A281ED10020FFF7E5FDA4F1F8
:10110000280738600420FFF7DFFD78600820FFF72C
:10111000DBFDB8600C20FFF7D7FDF860D9F80400BC
:101120004F4650B1012808D0062806D0022804D026
:1011300014E0FFE72520BDE8F88F0320E4E8026013
:10114000402084E841011B48083CFFF7EFFD694659
:101150000320FFF7CFF805462A28ECD17868042849
:1011600023D0BDF80000B860000420600920C4E965
:10117000010AC4E903680F48FFF7D8FDFFF7A0F89C
:1011800005462A28D7D10020FFF79EFD094C383CA0
:1011900020600420FFF798FD60600820FFF794FDB1
:1011A000A0600C20FFF790FDE0602846C3E7000038
:1011B000100000203011002070B505468CB00C46A0
:1011C0001148FFF7CFF8114E00213046FFF7D6F84F
:1011D0000F48CDE900050020A108CDE902018021DA
:1011E000CDE90401890006918900CDE90710890045
:1011F000CDE9091069463046FFF7DCF80121304699
:10120000FFF7BCF80CB070BD00F0001044040240C1
:101210008080014070B505468CB00C461248FFF73F
:10122000A1F8124E00213046FFF7A8F81048CDE98A
:10123000000510200290A008039000208021CDE935
:101240000401890006918900CDE907108900CDE9E4
:10125000091069463046FFF7ADF801213046FFF727
:101260008DF80CB070BD000000F000104404024086
:101270008080014008B50121B020FFF701FC4FF448
:10128000F850ADF8000003208DF8020018208DF80A
:10129000030069460E48FFF753F90420ADF800003B
:1012A00069460C48FFF74CF94FF40060ADF80000B8
:1012B00048208DF8030069460748FFF741F90121EE
:1012C0008802FFF7C5FB01210220FFF7C1FB08BD23
:1012D0000010014000140140001C01402DE9F05FA6
:1012E00063484FF00009B2210175C0F80090C0F8C2
:1012F0000490C0F80890C0F80C90C8464F46C0F85B
:101300001090FFF7F7FC0320FFF724FD0120FFF703
:1013100085FC574C4FF48065183420462760676081
:10132000A760C4E90375FFF701FD4FF4803A564604
:1013300001E0761E1CD08020FFF7AAFC0028F8D020
:10134000B6B140F2FF50FFF75DFC4FF4D57020605E
:10135000211D08204026256181E8C100444818303D
:10136000FFF7E4FC434A5046516B4FF0370B05E062
:101370000320BDE8F09F3F49496B401E11F0450F27
:1013800012D008B1480712D50420FFF73BFCA66035
:10139000C4E9007B3648C4E903751830FFF7C6FC82
:1013A0003720FEF719FF0CE00028E4D1ECE74806EF
:1013B00002D54020FFF726FC2F4801214FF080483E
:1013C0004160A660C4E9007BC4E903752848BA46B9
:1013D0001830FFF7ABFC3720FEF7FEFE07462A2841
:1013E00043D1A660C4E900AB2148C4E903A5574630
:1013F0001830FFF79BFC3720FEF7EEFE2A28B8D105
:101400001E4948EA01002060211D2920256181E84C
:10141000C10017481830FFF789FC16492A27486B86
:1014200010F0450FFBD0400704D503270420FFF739
:10143000E9FB1AE040F2FF50FFF7E4FB0020FFF762
:1014400043FCC10F09F1010903D14FF6FF71894532
:10145000C7D34FF6FF72914501D31B2089E710F0E7
:10146000804F02D0044802214160384681E70000E5
:1014700018110020008001401000002000001080A2
:101480002DE9F041644D0024E868012841D1C003F2
:10149000FFF708FC60B100BFFFF742FC696A41F842
:1014A0002400641C082CF7D3686A203068622DE0A1
:1014B0004FF48040FFF7F6FB58B3E9692869411AF9
:1014C000202918D2E969411A8907E969A0EB0100CE
:1014D0004FEA90060CD0761C0AE0286A0068FFF7F5
:1014E00045FC286A001D2862E869001DE861641C4B
:1014F000B442F2D30DE0286A50F82400FFF736FC1E
:10150000641C082CF7D3286A20302862E869203050
:10151000E8614FF480763046FFF7C4FB00244CF2BC
:101520003A3848B3E86890B177033846FFF7B0FB24
:1015300068B1E8692969884209D2FFF7F1FB0146E1
:10154000686A02C06862E869001DE861EDE76869E1
:1015500001280ED02A2028703046FFF759FB0021C1
:101560004046FFF7BBFB0120A861EC612878BDE88D
:10157000F08100F07FF9EEE70220FFF793FB50B116
:101580000220FFF745FB00214046FFF7A7FBEC6177
:1015900002202870EBE70820FFF784FB50B10820F9
:1015A000FFF736FB00214046FFF798FBEC61042073
:1015B0002870DCE72020FFF775FB50B12020FFF7F3
:1015C00027FB00214046FFF789FBEC6106202870CD
:1015D000CDE71020FFF766FB50B11020FFF718FB96
:1015E00000214046FFF77AFBEC6105202870BEE73A
:1015F0004FF400763046FFF755FB50B13046FFF709
:1016000007FB00214046FFF769FBEC6107202870CB
:10161000ADE72A20ABE70000100000202DE9F84FCD
:1016200014460E4605007DD0DFF8F0912A2089F897
:1016300000000027C9F81870DFF8E8817849C9F878
:101640001070C8E90017C8F80870C8F80C70C8F81E
:1016500010704046C8F81470FFF7ECFA0020FFF74E
:10166000E3FA0020FFF730FB800102D50E20BDE831
:10167000F88F6A484FF4007B4068022854D0601EFF
:10168000B0F5006F4ED2601E04424BD1204600F0F0
:1016900001FFDFF890910090A9F11409484610214C
:1016A000C0E900414FF0400AC9E902A78901C9F821
:1016B0001010FFF73BFB1020FEF78EFD2A28D6D135
:1016C0005748C8E9000400980001C8F80800022043
:1016D000C8E903070120C8F814005248FFF7AAFA26
:1016E000DFF8388148461121C8E90447C8F824507A
:1016F000C0E90061C9E902A74FF48061C9F8101080
:10170000FFF714FB1120FEF767FD06462A28AED12D
:10171000D8F80C004746022817D0012854D078B3D7
:1017200079E0FFE72620A2E75C46760AABE7484669
:10173000FFF7AEFA70B10024FFF7F2FA45F8240083
:10174000641C082CF8D3203504E0374F4FF40049CF
:1017500040F22A68786B10EA080FE8D00820FFF7FB
:1017600097FA20B10820FFF74DFA04207FE7022006
:10177000FFF78EFA28B10220FFF744FA022076E73D
:1017800031E02020FFF784FA20B12020FFF73AFA59
:1017900006206CE75C465846FFF77AFA40B12046CF
:1017A000FFF730FA072062E7FFF7BAFA01C501E058
:1017B0004FF400142046FFF76BFA0028F4D140F2F2
:1017C000FF50FFF71FFA26E0012148F22A30FFF709
:1017D00085FAB86910B938782A28FAD038782A28D2
:1017E00019D0387843E7012140F22A30FFF776FA22
:1017F0000120FFF719FA21462846FFF7DDFC00BF5C
:10180000FFF7BAFA0028E9D1B8690028E6D138789C
:101810002A28F5D0E2E7304629E700001000002032
:10182000FFFF0F004411002000800140094910B55E
:10183000086007204860402088600020C8604FF49E
:10184000806008610846FFF771FABDE81040072084
:10185000FEF7C2BC301100202A2130B1012804D08B
:10186000022802D0262108467047014AD060FAE7D4
:1018700010000020084810B500210C22C0E9001219
:101880004022C0E9022111010161FFF74FFABDE8D2
:1018900010400C20FEF7A0BC3011002010B5FFF75F
:1018A000D1FB144C20701448FFF7A8FA207012489E
:1018B000B0F84C000004FFF7B9FF20704FF400604F
:1018C000FFF760FA20700020FFF7C6FF20702A287B
:1018D0000FD109484FF4007200215030FFF79EFEEF
:1018E00020702A2805D1BDE8104004A10D4800F061
:1018F00019BB10BD00000020540200200D0A534403
:10190000205344494F2D34626974C4A3CABD20B228
:10191000E2CAD45446BFA8B3C9B9A6A3A1200A20DD
:1019200000000000003801402DE9FC5F4FF0000787
:101930001446884605008DF800703E4668D0DFF8F2
:10194000A4922A2189F80010C9F81870DFF89CB217
:10195000A5495846C9F81070C0E90017CBF80870BF
:10196000CBF80C70CBF81070CBF81470FFF762F95D
:101970000020FFF759F90020FFF7A6F9800102D5F2
:101980000E20BDE8FC9FD9F80400022842D0601E5A
:10199000B0F5006F3CD2601E044239D1204600F001
:1019A00079FDDFF848A20190AAF1140A50461021EF
:1019B000C0E900414021CAE902170901CAF8101024
:1019C000FFF7B4F91020FEF707FC2A28D9D1854883
:1019D000D1460089010450464FF00D0AC0E9001AB3
:1019E000402181600021C16080484FF4806114383B
:1019F000C9F81010FFF79AF90D20FEF7EDFB2A2821
:101A0000BFD10020FFF760F9774F4FF0000A21E0C7
:101A10002620B6E74FF400744FEA5828BBE7714818
:101A20007F1E00890104C9F800100D21C9F80410B7
:101A30004021C9E9021A6D4809011438C9F810108B
:101A4000FFF774F90D20FEF7C7FB2A2899D1002073
:101A5000FFF73AF9C00502D4002FE0D131E07FB39F
:101A600048461821C0E900814021C0E9021A090155
:101A700001615E48D1461438FFF758F91820FEF787
:101A8000ABFB2A28C5D1DFF85C8158464746C8F829
:101A90002050C7E90449544AC0E90024019A0121B1
:101AA0001201C0E90229CBE904915048FFF7C2F8BE
:101AB000F86802282ED0464601285BD0E0B380E0CB
:101AC000FFE729205DE700BF4FF48040FFF7E0F813
:101AD000F8B1D8F81000801B20280FD281074FEAF8
:101AE000900700D07F1C002405E02868FFF73EF92E
:101AF000641C2D1D361DBC4210D2F6E75FF00004B9
:101B000055F82400FFF732F9641C082CF8D320356F
:101B1000203603E0DFF8D89040F21A6AD9F8340092
:101B200010EA0A0FD0D00820FFF7B2F828B1082039
:101B3000FFF768F8042024E72BE00220FFF7A8F85D
:101B400020B10220FFF75EF802201AE71020FFF70D
:101B50009FF820B11020FFF755F8052011E74FF44A
:101B600000742046FFF794F858B32046FFF74AF870
:101B7000072006E7012144F21A30FFF7AFF8B069F9
:101B800010B930782A28FAD030782A2819D030783D
:101B9000F7E6012140F21A30FFF7A0F82146284667
:101BA000FFF738FB0120FFF73FF800BFFFF7E4F82D
:101BB0000028E9D1B0690028E6D130782A28F5D08C
:101BC000E2E740F2FF50FFF71DF86846FEF716FD0A
:101BD0002A28B0D19DF800100729F6D00629F4D0A4
:101BE000CFE6000010000020FFFF0F00441100208E
:101BF000008001400029018802D041F0400101E04D
:101C000021F04001018070470246002012890A42FB
:101C100000D001207047808970478181704730B5BE
:101C200002884C8802F441530A88CD8822438C886C
:101C30002C4322430C8922434C8922438C89224322
:101C4000CC8922431A430280828B22F40062828371
:101C5000098A018230BD0000F0B5012187B08803F8
:101C6000FEF702FF4FF46040ADF8000003248DF84A
:101C7000024018202E4E8DF8030069463046FEF7CC
:101C80005FFC0125ADF800508DF8024010278DF85B
:101C9000037069463046FEF753FC2803ADF8000098
:101CA0008DF802408DF8037069463046FEF748FC17
:101CB000ADF8005069461F48FEF742FC40201E4C1C
:101CC000ADF8000069462046FEF73AFC28208DF862
:101CD00003008020ADF8000069462046FEF730FC86
:101CE0000021ADF804104FF48270ADF806006015C5
:101CF000ADF80C10ADF80E002020ADF81000ADF8D6
:101D0000081007200D4CADF80A10ADF81210ADF810
:101D1000140001A92046FFF782FF01212046FFF7AA
:101D200069FF01213046FEF765FC07B0F0BD0000F9
:101D3000000C014000180140001001400038004034
:101D4000704700000CB500212648019100910268FF
:101D500042F4803202604FF4A063026802F4003261
:101D60000092019A521C0192009A12B9019A9A4269
:101D7000F3D10268920333D5012100911A490A6810
:101D800042F010020A600A6822F003020A600A6840
:101D900042F002020A604168416041684160416866
:101DA00041F480614160416821F47C1141604168E7
:101DB00041F4E8114160016841F0807101600168FF
:101DC0008901FCD5416821F003014160416841F07F
:101DD000020141604168C1F381010229FAD10CBDC1
:101DE00000910CBD001002400020024000F028B815
:101DF0000F4810B5016841F00101016041680D4ACA
:101E00001140416001680C4A11400160016821F4F1
:101E100080210160416821F4FE0141604FF41F01FF
:101E20008160FFF78FFF05494FF00060086010BD2B
:101E3000001002400000FFF8FFFFF6FE08ED00E092
:101E400003484168002902D04168491E416070473B
:101E5000000000200029818902D041F4005101E0F6
:101E600021F40051818170470246002012880A4205
:101E700000D001207047000030B50446008A85B0CC
:101E80000D464CF6FF710840E98801432182A18983
:101E90004EF6F3100140A8882A8910436A890A4344
:101EA0001043A081A08A4FF6FF410840A989014351
:101EB000A1826846FEF7FEFD1948844201D10398CD
:101EC00000E00298A189090400EBC00101EB0010B9
:101ED000296801D5490000E08900B0FBF1F06422D7
:101EE000B0FBF2F109010B096FF018056B4300EB31
:101EF0008300A3891D044FF0320306D503EBC00015
:101F0000B0FBF2F000F0070005E003EB0010B0FBBF
:101F1000F2F000F00F000843208105B030BD000052
:101F2000003801400FB47FB505460AAC0FE05C29CC
:101F300014D002F10102252909921DD0284600F093
:101F40004BF840212846FFF78FFF0028F9D0099A67
:101F500011780029EBD17FBC5DF814FB521C09926B
:101F600010786E2803D072280BD10D2100E00A21D1
:101F7000284600F031F816E01078642817D073284E
:101F800002D0521C0992DCE740CC09E0284600F060
:101F900023F840212846FFF767FF0028F9D0761C78
:101FA00031780029F2D10998401C0990C9E701CC89
:101FB0000A22694601F01AFA6E4609E0284600F046
:101FC0000BF840212846FFF74FFF0028F9D0761C78
:101FD00031780029F2D1E6E7C1F30801818070472A
:101FE000FEE7000070B586B04FF40054ADF8004035
:101FF00003258DF8025010201F4E8DF8030069460E
:102000003046FEF79DFA21463046FEF7F1FA0121EF
:102010008803FEF735FD2011ADF800008DF8025061
:102020001820164C8DF8030069462046FEF788FA02
:102030002015ADF8000004208DF803006946204605
:10204000FEF77EFA4FF4E13001900020ADF8080071
:10205000ADF80A00ADF80C00ADF810000C20084CEB
:10206000ADF80E0001A92046FFF706FF012120462A
:10207000FFF7F0FE06B070BD0014014000080140FB
:102080000038014070B5104D0446E86840F040004B
:10209000E8600E4E306820F480503060022000F07E
:1020A00017F80B2000F014F8204600F011F8204635
:1020B00000F00EF8306840F480503060E86820F09E
:1020C0004000E86070BD0000001001400C0C0140B1
:1020D00070B50B4C054602212046FFF795FD002800
:1020E000F9D029462046FFF798FD01212046FFF749
:1020F0008BFD0028F9D02046FFF78DFDC0B270BDE2
:10210000003800402DE9F04105460F480F461646BD
:10211000C16841F04001C1600C4C206820F480503F
:1021200020600220FFF7D4FF2846FFF7D1FF384692
:10213000FFF7CEFF3046FFF7CBFF206840F480501A
:102140002060BDE8F0810000001001400C0C01404F
:1021500070B51F4C206820F0010020604FF47A76A3
:102160003046FEF745F9FF20FFF7B2FF194DE8684A
:1021700040F04000E8601848016841F48051016077
:10218000206840F0010020603046FEF731F900225F
:1021900008211046FFF7B6FF002298210320FFF721
:1021A000B1FF8122BB210520FFF7ACFF0B4802786D
:1021B00041780220FFF7A6FF002211460B20FFF70F
:1021C000A1FF80212846FEF70CFA0028F9D070BD47
:1021D0000C180140001001400C0C01400C000020C4
:1021E00002E008C8121F08C1002AFAD170477047E0
:1021F000002001E001C1121F002AFBD1704700003E
:1022000010B504460A464078012304F1300100F07D
:102210005AFD08B1032010BDB4F82E02A0F52A41E2
:10222000553901D0022010BD94F86600B4F867104B
:1022300040EA01210848B0EB012F08D094F8821041
:10224000B4F8832041EA0221B0EB012F01D1002034
:1022500010BD012010BD00000046415400E0401CAC
:1022600002780AB18A42FAD1D0B270472DE9F0471C
:102270000B460168154600260A78303A092A02D82A
:102280004C783A2C01D01E6006E0891C01601E606B
:1022900012B10B20BDE8F087754804688CB11C6052
:1022A000207820B1607800F018FDC1070BD02670AF
:1022B000B1463046667000F002FDC10708D0032029
:1022C000E8E70C20E6E70DB1400704D40020E1E781
:1022D0001DB1400701D50A20DCE700210D4620464C
:1022E000FFF78EFF01280CD104F5F7700179E9B3EF
:1022F000017AD0F8090041EA002529462046FFF777
:102300007FFF032801D088BB01E00120C2E7B4F8B9
:102310003B00B0F5007F58D1B4F8460028B994F8D6
:102320005400D4F8551040EA0120E06194F84010C0
:102330008446E170012901D0022946D1484394F82E
:102340003D10A17091B14B1E19423ED1B4F841200D
:102350002281130739D1B4F843602EB994F8503074
:10236000D4F8516043EA0626E78F00E02DE067B31A
:102370003B1803EB12139E4227D3F61AB6FBF1F17A
:1023800019B3012640F6F678414500D302264FF6F0
:10239000F678414500D303262B44A362891CEB1930
:1023A000A1612362032E12D07AB118446062022E1A
:1023B00018D001F0010001EB410100EB510000BF1A
:1023C00000F2FF10BCEB502F0ED20D2062E7002A66
:1023D000FBD194F85C00D4F85D2040EA02206062F2
:1023E0008800EDE74800EBE74FF0FF30C4E90390C9
:1023F0004F46032E31D16771B4F8600001234219B2
:102400006261607804F1300100F05DFC28BBB4F833
:102410002E02A0F52A4155391FD194F83000D4F886
:10242000311040EA01201349884216D194F8140271
:10243000D4F8151240EA01200F4988420DD194F8D2
:102440001C02D4F81D1240EA0120E06094F8180242
:10245000D4F8191240EA0120206105492670091FAD
:102460000888401C0880E080E76227712EE70000A2
:102470005000002052526141727241618269891E8E
:10248000921E8A4201D800207047826A807801FB40
:1024900000207047002102E04008491CC9B2012811
:1024A000FAD1084670472DE9F0410F00064606D0E4
:1024B00000F0D0FE022809D20120BDE8F081F468C6
:1024C00014B1B069A04205D8012403E0B16981428A
:1024D000F3D83C462546B0696D1CA84202D80225B7
:1024E000022C0AD32946304600F0B4FE38B1411C14
:1024F000E3D00128E1D0A542EDD10020DDE76FF067
:1025000070422946304601F011F830B957B12A46D9
:102510003946304601F00AF820B101280BD00125D8
:102520002846CAE7F5603069411CF9D0401E306189
:1025300001207071F4E74FF0FF35F1E72DE9F84F16
:10254000884682460F6800E07F1C38782F28FBD031
:102550005C28F9D00024DAF81C602546785D6D1CF3
:10256000202827D32F2825D05C2823D0FF2C42D227
:10257000A0F181017D290BD8795D6D1CA1F140028C
:102580003F2A02D3403A7F2A35D201EB002080B2A5
:10259000012100F0B7FD5FEA00092CD0B9F1800FEE
:1025A00004D2014671A0FFF759FE20BB26F8149013
:1025B000641CD3E77A19C8F80020202801D204252A
:1025C00017E0002515E000BF06EB440030F8020CD0
:1025D00020280DD02E280BD06CB1002026F8140036
:1025E0000B222021DAF8180000F063FF002706E034
:1025F000641E002CE8D10620BDE8F88F7F1C36F859
:1026000017002028FAD02E28F8D01FB145F0030576
:1026100000E0641E2CB106EB440030F8020C2E28BA
:10262000F7D1002081464FF0080B009036F81700D4
:1026300007F101075FEA000824D0B8F1200F04D0A9
:10264000B8F12E0F04D1A74202D045F00305EDE703
:102650000098584501D2A7421AD1BBF10B0F0FD0F9
:10266000A74201D045F003050CD84FF008000090B8
:102670004FEA896027464FF00B0B4FEA1069D5E708
:1026800045F00305DAF818000178E52949D04AE059
:102690004046B8F1800F07D300F05AFD002100F04A
:1026A00031FD804645F00205B8F1FF0F13D90099BE
:1026B000ABF10100814204D345F00305CDF800B031
:1026C000B4E7DAF8182000984FEA1821115400985E
:1026D000401C00901CE0B8F1000F04D0014626A079
:1026E000FFF7BCFD20B14FF05F0845F003050FE098
:1026F000A8F14100192802D849F0020908E0A8F120
:102700006100192804D8413049F001091FFA80F806
:10271000DAF81820009902F801800098401C009017
:1027200084E705210170BBF1080F03D14FEA8960EE
:102730004FEA1069C9F38100032803D06FEA090149
:10274000890701D145F00205A90709D409F0030161
:10275000012901D145F01005012801D145F00805F6
:10276000DAF81800C572002046E70000222A3A3C39
:102770003E3F7C7F000000002B2C3B3D5B5D00005A
:102780002DE9F84F0546002100F05AFA002879D1CA
:102790004FF0FF0BD9462969286800F091FE06002A
:1027A0000ED16C69207850B1E17AE52801F03F0143
:1027B00003D00A0705D50F2909D0FF204DE00426D4
:1027C00072E00F2903D0B9F1000F4BD04FE0E96957
:1027D00081B3420606D594F80DB020F04000EA8897
:1027E00081462A84484536D1627B5A4533D10091CF
:1027F0002078A04620F04000401E00EB800100271A
:10280000DFF8ACA001EBC006012400BF1AF80710E6
:1028100001EB0800008874B100F09AFC0446FF2E1A
:1028200019D2009830F81600761C00F091FCA042F6
:1028300011D104E02FE0A0F57F41FF390BD17F1CBF
:102840000D2FE3D398F80000400608D53CB100985E
:1028500030F8160018B1FF20C0B281461DE0A9F182
:102860000100F9E7204600F017FF58451CD04FF64D
:10287000FF702884A8694FF0FF09C17AC9070CD1FD
:102880000A2102E011E0491E06D314F8013B10F8BA
:10289000012B9A1AF7D000E032B10021284600F04F
:1028A00009F806003FF477AF3046BDE8F88F000026
:1028B0008E3700082DE9F0410446C0880F46401CC1
:1028C0000604360C2DD0206958B331075ED1401C68
:1028D0002061E168206829B18278521E12EA161F31
:1028E00004D053E00089B0421BD94FE000F0B2FCA5
:1028F000054601281AD9681C33D020688169A9428D
:102900003ED877B1E168FFF7CEFD05000CD0012D70
:102910000CD0681C25D00021206800F0D1FD00BB40
:1029200006E00420BDE8F0810720FBE70220F9E77C
:1029300020684FF400720021303000F0BAFD2946C3
:102940002068FFF79BFD216800274FF00108C8624F
:102950000FE000BF80F804800021206800F0B0FD87
:1029600008B10120DEE72068C16A491C7F1CFFB264
:10297000C16220688178B942ECD8C16AC91BC162C2
:10298000E56029462068FFF779FD2061E68006F0C2
:102990000F013022206802EB4111084460610020E1
:1029A000C0E700002DE9F05FFF2405462746042616
:1029B0004FF6FF794FF0000A61E0286800F080FDD3
:1029C000060060D16869017861B1C27AE52902F038
:1029D0003F0205D02E2903D0130705D50F2A07D0B3
:1029E000FF243EE004264EE00F2A01D0B4BB3FE0B6
:1029F0004A0605D5477B21F04001EA880C462A8427
:102A0000A1422CD1417BB94229D10178DFF880B0B5
:102A100001F03F01491E01EB810202EBC1010022DE
:102A2000D5F81C800126CC461BF8023003441B88D5
:102A300036B1FF2913D228F811301E46491C01E097
:102A400063450CD1521C0D2AEED30078400603D505
:102A5000FF2904D228F811A0641E01E00CE0FF2435
:102A6000E4B200212846FFF725FF060007D00AE060
:102A700000F012FEB84208D0A5F8209005E02969C0
:102A800000299AD10EB1C5F810A03046BDE8F09FDC
:102A90008E3700082DE9FF5F04460C22D4E9067644
:102AA0003946684600F0FCFC9DF80B00C00719D0C1
:102AB0000020F8720125E0612B463246694638460F
:102AC00000F08CFB2046FFF75BFE18B96D1CADB221
:102AD000642DF1D3642D0BD004280AD19DF80B008E
:102AE000F872E6619DF80B00800711D5002005E023
:102AF000072004B0BDE8F09F401C80B236F81010EB
:102B00000029F9D10D211930B0FBF1F086B200E0B7
:102B100001260021204600F093F80028E9D1002783
:102B2000B8462169206800F0CBFC05000BD1606934
:102B30000078E52808D038B1002701212046FFF7AA
:102B4000B9FE0500EDD077E00FB9B4F806807F1C20
:102B5000BFB2B742F1D1012E55D94146204600F00F
:102B60006FF8050068D1A06900F096FD761E1FFA87
:102B700086FB03902169206800F0A2FC05005BD170
:102B80006169D4F81C90039848730F20C872002024
:102B9000087388760BF0FF0AC876AAF1010000EBF3
:102BA000800202EBC00500234FF6FF7E234E4A1C35
:102BB00001E0604503D039F81500F4466D1CF75C60
:102BC000C85516F80380070A08F8027000B9604675
:102BD0005B1C0D2BEDD3704502D039F8150008B9F8
:102BE0004AF0400A81F800A0216801200871002104
:102BF0002046FFF75FFE05001ED1ABF1010080B259
:102C00005FEA000BB6D12169206800F059FC05008D
:102C100012D1666920220021304600F04AFC0B22C6
:102C20003046A16900F03CFCA069C07A00F01800B1
:102C3000307321680120087128465AE78E37000852
:102C400070B50D46C1808168044601291ED02068F8
:102C500082698A421AD921B90278032A04D1416AC9
:102C600011B18078060117E0E1600189A9420DD910
:102C7000406A17E0206800F0EDFA0146401C07D0DA
:102C8000022903D320688069884203D8022070BDDE
:102C9000012070BDA81B85B2B542EBD2E16020686F
:102CA000FFF7ECFB00EB1510206105F00F0130225F
:102CB000206802EB411108446061002070BD0020D3
:102CC00070470020704710B50846012B03D1510210
:102CD0005A02FEF7A3FC002010BD0020704710B57B
:102CE0000846012B03D151025A02FEF71DFE0020B7
:102CF00010BD10B5044600F0B9F9002801D100213B
:102D0000216010BD08B10B207047054A00231068F0
:102D100000B1037001B10B7000201160704700001A
:102D2000500000202DE9F7478DB007000ED04FF07E
:102D3000000802F01F0626F0010269460EA8C7F837
:102D40000080FFF793FA050004D086E0092010B058
:102D5000BDE8F08709A806904148079068460E999B
:102D600000F008FA059C050001D104B9062516F00B
:102D70001C0F4CD055B1042D03D16846FFF78AFED5
:102D80000546059C46F0080655B166E0E07A10F06D
:102D9000110F01D0072560E0700701D508255CE020
:102DA000300742D500F0B2FAA073010AE173010CBA
:102DB0002174000E607484F80B8084F81C8084F801
:102DC0001D8084F81E8084F81F802146009800F042
:102DD0003CFB81460021204600F056FC0099012072
:102DE000B9F1000F08711ED000984946D0F82CA008
:102DF00000F019FC050030D10099A9F10100C8606C
:102E00005146009800F05CFB05000AD025E025BB88
:102E1000E07AC10601D504251FE0B10701D5C0073E
:102E2000B8D1300701D546F0200600982146C06A87
:102E3000C7E90704BE71009800F007FB3861207FE6
:102E4000D4F81D1040EA0120C7E90280C7F81880B5
:102E5000009838600098C088B880284677E700005E
:102E60005C11002073B584B0040008D00146002234
:102E700005A8FFF7FBF92568002618B11EE0092018
:102E800006B070BDC4F818D00E48E0612046059920
:102E900000F070F970B9616931B1C87AC0060FD518
:102EA000284600F0D2FAA060E888A08000212046E1
:102EB000FFF7C6FE042803D00028E1D02660DFE734
:102EC0000520FBE75C1100202DE9F05F0F46002193
:102ED000984615460446196000F047FC002803D1C7
:102EE000A079010602D50220BDE8F09FC00708D0F6
:102EF000D4E90210401A04F12409854200D905469C
:102F000084E00720F0E7A068C10567D122689178C6
:102F1000491E01EA502111F0FF0609D120B31046E5
:102F2000616900F097F9022820D3411C4ED06061FE
:102F300061692068FFF7A2FAC0B100EB060B680ACE
:102F40005FEA000A29D0206806EB0A0281788A42EB
:102F500001D9A1EB060A0AF0FF0340785A46394628
:102F6000FFF7B1FE90BB06E02069DCE7A07940F0F6
:102F70008000A071B7E7A07940060BD5A169A1EB4D
:102F80000B00504506D207EB40204FF40072494633
:102F900000F086FA4FEA4A262EE0A2695A451BD075
:102FA000A07940060AD52068012349464078FFF7FA
:102FB00096FE58B9A07920F04000A0712068012346
:102FC0005A4640784946FFF77EFE28B1A07940F086
:102FD0008000A071012087E7C4F818B02089C0F3F1
:102FE0000800C0F50076AE4200D92E4601193246DF
:102FF0003846243100F054FAA06837443044A060C9
:10300000D8F800008119AD1BC8F80010002D7FF41E
:103010007AAF002068E70000FEB50E46044600F0D7
:10302000A4FB002818D1C6B1C4F818D00E48E0613E
:103030002046FFF7B7FC0025042813D000280BD149
:103040003146204600F064F900212046FFF732FCAB
:10305000042801D100202561FEBD00212046FFF794
:10306000EFFDFEBD2561EBE75C11002070B5044665
:1030700000F07BFB00280ED1A1798A060BD548060B
:103080000ED52068012304F124014078A269FFF7DE
:1030900026FE08B1012070BDA07920F04000A0718B
:1030A000E169206800F00CFA0028F4D1256AE87A7A
:1030B00040F02000E872207B2877A089000A68771A
:1030C000E068000CA877E068000EE87728462169E0
:1030D00000F0DAFA00F01AF9A875010AE975010C96
:1030E0002976000E68760020A874E874A07920F094
:1030F0002000A0712168012008712068BDE870409F
:1031000000F0D7BA70B580281BD345F2205309B11F
:103110000D4D00E00D4D002110245A1A02EBD27221
:1031200001EB620235F82260864206D001D21146D8
:1031300000E01346641EF0D104E01CB105EB8200F0
:10314000408870BD002070BD208C01089C370008AD
:103150000021064B00E0491C33F81120002A04D05E
:103160008242F8D1024830F811007047A4E002080A
:1031700084E2020873B50446019801782F2901D032
:103180005C2901D1401C01900025A56001980078C0
:10319000202805D200212046FFF752FD65617CBD45
:1031A00001A92046FFF7CAF90028F8D12046FFF709
:1031B000E7FAA169C97A28B10428F0D14907EED409
:1031C00005207CBD4907FCD46169C87AC006F7D5E3
:1031D000206800F03AF9A060E2E700007CB51646EE
:1031E0001C4605460B2200F05BF9052C09D9600846
:1031F00036F8021B00EBC430084484B23088002843
:10320000F5D107214FEA0D0304F00F0030303928C3
:1032100000D9C01D5854491E2409F5D17E20002232
:1032200058544C1E06E081387D2802D8A24206D0B0
:10323000521C521C8A4202D2A85C2028F3D10829D1
:1032400002D2585C491C00E02020A854521C082AD5
:10325000F5D37CBD2DE9F0410D460446022902D389
:10326000A069A84202D80120BDE8F0812078012899
:1032700004D0022826D0032837D12FE0206A05EB9E
:10328000550600EB5621204600F01AF968BBC6F33C
:1032900008002044761C90F83070206A00EB56211C
:1032A000204600F00DF900BBC6F308002044E907F2
:1032B00090F8300047EA002001D00009D4E7C0F3BD
:1032C0000B00D1E7206A00EB1521204600F0F8F84A
:1032D00058B9E8B204EB4000008EC5E7206A00EB65
:1032E000D511204600F0ECF810B14FF0FF30BBE7ED
:1032F00040F2FF1000EA8500204490F83010D0F82A
:10330000310041EA002020F07040ADE70020704716
:103310002DE9F0410D4601F109040169C1B341698C
:1033200000230E7BCA5C202A0FD0052A00D1E5229B
:10333000370705D5A2F14107192F01D82032D2B2A3
:103340005B1C04F8012B082BECD30A7A202A13D03B
:103350002E2204F8012B0823CA5C202A0CD0F70681
:1033600005D5A2F14107192F01D82032D2B25B1C3A
:1033700004F8012B0B2BEFD3CA7A2A720A7FD1F8FB
:103380001D3042EA03222A600A8BAA80C98AE9809A
:103390004FF0000884F80080AE69002E23D0E96960
:1033A000002920D001690024D9B1018CA1F57F4208
:1033B000FF3A16D0C76910E00021FFF7A3FE40B125
:1033C000FF2802D9010A3155641CE969491EA1424E
:1033D00001D8002405E03055641C37F8020B0028A2
:1033E000EAD106F80480BDE8F0810000F0B50026BF
:1033F0000B4635460A2A02D00D701846F0BD00284B
:103400001FD006DA4FF02D021A7001F10103C0F14E
:10341000000042F210744FF00A0700BF90FBF4F274
:1034200052EA060C06D002F1300603F8016B02FBEB
:103430001400012694FBF7F4002CEFDC1D70084605
:10344000F0BD302018704B1CF8E70246488B12780C
:10345000032A02D1898A40EA01407047FDF71CFB2C
:103460004FF0E02040F2CF2141610C4AF02182F878
:10347000141D0021816107210161FDF767F9FEF745
:10348000B1FDFEF7E9FB42F21070FCF7B1FFFEF769
:1034900005FA00BFFDF7ACF9FCE700000FE000E023
:1034A00004E000BF11F8013B00F8013B521EF9D2C5
:1034B0007047C9B201E000F8011B521EFBD27047F1
:1034C0002DE9F041C56A0F460446BD422BD0217953
:1034D00004F13008D9B1607801232A464146FFF74C
:1034E000FEFBE0B900202071D4E907100844A8428F
:1034F0000DD9E67809E0E0690123054460782A46A1
:103500004146FFF7ECFB761EF6B2012EF3D857B119
:10351000607801233A464146FFF7D5FB10B1012000
:10352000BDE8F081E7620020FAE700002DE9F047EE
:1035300017460D460446022902D3A069A84202D8C4
:103540000220BDE8F087217807F0FF084FF001095D
:10355000012908D0022938D0032947D05FF00200A2
:1035600084F80490EDE7206A05EB550600EB562140
:103570002046FFF7A5FF0028F2D1C6F3080020443B
:103580003030E90703D0017868F31F1100E03946B5
:10359000017084F80490206A761C00EB56212046C6
:1035A000FFF78EFF0028DBD1C6F30801214430313C
:1035B000EA0702D0C7F3071205E00A78C7F303232E
:1035C00002F0F0021A430A70CAE7206A00EB1521E4
:1035D0002046FFF775FF0028C2D1E9B204EB410194
:1035E0003A0A81F8308081F83120B9E7206A00EB8F
:1035F000D5112046FFF764FF0028B1D140F2FF113A
:1036000001EA85010A194FF07043D2F8311003EA3C
:103610000121394302F8301F0B0A53700B0C9370D1
:10362000090ED1709CE72DE9F0410E4607460229AC
:1036300018D3B869B04215D900254FF001081DE034
:1036400031463846FFF706FE04001AD0012C09D097
:10365000601C09D0002231463846FFF767FF05009D
:103660000FD103E002250CE001250AE03869411C76
:1036700003D0401C386187F805802646B869B042FF
:10368000DED82846BDE8F08181760A0AC2760A0CA7
:103690000275090E41757047014600200B22430850
:1036A00003EBC01011F8013B521E1844C0B2F6D112
:1036B00070472DE9F04104460021FFF701FF0500A6
:1036C00050D12078032846D16079F0B3002604F168
:1036D00030004FF4007231460746E662FFF7E9FE1C
:1036E000552084F82E02AA2084F82F02522084F854
:1036F000300084F83100612084F83200412184F8E0
:103700003310722284F8142284F8152284F81612D9
:1037100084F81702206984F81802010A84F8191243
:10372000010C84F81A12000E84F81B02E06884F879
:103730001C02010A84F81D12010C000E84F81E12EE
:1037400084F81F026078012300E004E039466269D2
:10375000FFF7C5FA6671002260781146FFF7B1FAEB
:1037600000B101252846BDE8F08110B5016829B1F6
:103770000A781AB1CA888088824201D0092010BD17
:103780004878FFF7AAFAC007F9D0032010BD01035B
:103790000507090E10121416181C1E00A400E8A13B
:1037A000A700ECA1A800A7A1B000E3A1B100C0A1AF
:1037B000B700A4A1D700C1A1E000A4A8E100A2A87D
:1037C000E800A8A8E900A6A8EA00BAA8EC00ACA8FE
:1037D000ED00AAA8F200B0A8F300AEA8F700C2A1BD
:1037E000F900B4A8FA00B2A8FC00B9A80101A1A888
:1037F0001301A5A81B01A7A82B01A9A84401BDA8D6
:103800004801BEA84D01ADA86B01B1A8CE01A3A887
:10381000D001ABA8D201AFA8D401B3A8D601B5A8F6
:10382000D801B6A8DA01B7A8DC01B8A85102BBA834
:103830006102C0A8C702A6A1C902A5A1CA0240A8E8
:10384000CB0241A8D90242A89103A1A69203A2A645
:103850009303A3A69403A4A69503A5A69603A6A6E0
:103860009703A7A69803A8A69903A9A69A03AAA6B0
:103870009B03ABA69C03ACA69D03ADA69E03AEA680
:103880009F03AFA6A003B0A6A103B1A6A303B2A64F
:10389000A403B3A6A503B4A6A603B5A6A703B6A61C
:1038A000A803B7A6A903B8A6B103C1A6B203C2A6CE
:1038B000B303C3A6B403C4A6B503C5A6B603C6A680
:1038C000B703C7A6B803C8A6B903C9A6BA03CAA650
:1038D000BB03CBA6BC03CCA6BD03CDA6BE03CEA620
:1038E000BF03CFA6C003D0A6C103D1A6C303D2A6EF
:1038F000C403D3A6C503D4A6C603D5A6C703D6A6BC
:10390000C803D7A6C903D8A60104A7A71004A1A776
:103910001104A2A71204A3A71304A4A71404A5A723
:103920001504A6A71604A8A71704A9A71804AAA7F0
:103930001904ABA71A04ACA71B04ADA71C04AEA7BF
:103940001D04AFA71E04B0A71F04B1A72004B2A78F
:103950002104B3A72204B4A72304B5A72404B6A75F
:103960002504B7A72604B8A72704B9A72804BAA72F
:103970002904BBA72A04BCA72B04BDA72C04BEA7FF
:103980002D04BFA72E04C0A72F04C1A73004D1A7C0
:103990003104D2A73204D3A73304D4A73404D5A763
:1039A0003504D6A73604D8A73704D9A73804DAA730
:1039B0003904DBA73A04DCA73B04DDA73C04DEA7FF
:1039C0003D04DFA73E04E0A73F04E1A74004E2A7CF
:1039D0004104E3A74204E4A74304E5A74404E6A79F
:1039E0004504E7A74604E8A74704E9A74804EAA76F
:1039F0004904EBA74A04ECA74B04EDA74C04EEA73F
:103A00004D04EFA74E04F0A74F04F1A75104D7A728
:103A100010205CA9132043A81420AAA1152044A8B3
:103A20001620ACA11820AEA11920AFA11C20B0A176
:103A30001D20B1A1252045A82620ADA13020EBA155
:103A40003220E4A13320E5A1352046A83B20F9A18E
:103A5000AC2080000321E6A1052147A8092148A840
:103A60001621EDA1212159A96021F1A26121F2A223
:103A70006221F3A26321F4A26421F5A26521F6A2DA
:103A80006621F7A26721F8A26821F9A26921FAA2AA
:103A90006A21FBA26B21FCA27021A1A27121A2A22A
:103AA0007221A3A27321A4A27421A5A27521A6A2AA
:103AB0007621A7A27721A8A27821A9A27921AAA27A
:103AC0009021FBA19121FCA19221FAA19321FDA1BA
:103AD000962149A897214AA898214BA899214CA83A
:103AE0000822CAA10F22C7A11122C6A115224DA8E2
:103AF0001A22CCA11D22D8A11E22DEA11F224EA86F
:103B00002022CFA123224FA82522CEA12722C4A163
:103B10002822C5A12922C9A12A22C8A12B22D2A1CB
:103B20002E22D3A13422E0A13522DFA13622C3A167
:103B30003722CBA13D22D7A14822D6A14C22D5A124
:103B4000522250A86022D9A16122D4A16422DCA112
:103B50006522DDA1662251A8672252A86E22DAA151
:103B60006F22DBA1952292A89922D1A1A522CDA1F5
:103B7000BF2253A81223D0A16024D9A26124DAA2C3
:103B80006224DBA26324DCA26424DDA26524DEA21D
:103B90006624DFA26724E0A26824E1A26924E2A2ED
:103BA0007424C5A27524C6A27624C7A27724C8A20D
:103BB0007824C9A27924CAA27A24CBA27B24CCA2DD
:103BC0007C24CDA27D24CEA27E24CFA27F24D0A2AD
:103BD0008024D1A28124D2A28224D3A28324D4A27D
:103BE0008424D5A28524D6A28624D7A28724D8A24D
:103BF0008824B1A28924B2A28A24B3A28B24B4A2BD
:103C00008C24B5A28D24B6A28E24B7A28F24B8A28C
:103C10009024B9A29124BAA29224BBA29324BCA25C
:103C20009424BDA29524BEA29624BFA29724C0A22C
:103C30009824C1A29924C2A29A24C3A29B24C4A2FC
:103C40000025A4A90125A5A90225A6A90325A7A9A0
:103C50000425A8A90525A9A90625AAA90725ABA970
:103C60000825ACA90925ADA90A25AEA90B25AFA940
:103C70000C25B0A90D25B1A90E25B2A90F25B3A910
:103C80001025B4A91125B5A91225B6A91325B7A9E0
:103C90001425B8A91525B9A91625BAA91725BBA9B0
:103CA0001825BCA91925BDA91A25BEA91B25BFA980
:103CB0001C25C0A91D25C1A91E25C2A91F25C3A950
:103CC0002025C4A92125C5A92225C6A92325C7A920
:103CD0002425C8A92525C9A92625CAA92725CBA9F0
:103CE0002825CCA92925CDA92A25CEA92B25CFA9C0
:103CF0002C25D0A92D25D1A92E25D2A92F25D3A990
:103D00003025D4A93125D5A93225D6A93325D7A95F
:103D10003425D8A93525D9A93625DAA93725DBA92F
:103D20003825DCA93925DDA93A25DEA93B25DFA9FF
:103D30003C25E0A93D25E1A93E25E2A93F25E3A9CF
:103D40004025E4A94125E5A94225E6A94325E7A99F
:103D50004425E8A94525E9A94625EAA94725EBA96F
:103D60004825ECA94925EDA94A25EEA94B25EFA93F
:103D7000502554A8512555A8522556A8532557A873
:103D8000542558A8552559A856255AA857255BA843
:103D900058255CA859255DA85A255EA85B255FA813
:103DA0005C2560A85D2561A85E2562A85F2563A8E3
:103DB000602564A8612565A8622566A8632567A8B3
:103DC000642568A8652569A866256AA867256BA883
:103DD00068256CA869256DA86A256EA86B256FA853
:103DE0006C2570A86D2571A86E2572A86F2573A823
:103DF000702574A8712575A8722576A8732577A8F3
:103E0000812578A8822579A883257AA884257BA88E
:103E100085257CA886257DA887257EA8882580A85D
:103E2000892581A88A2582A88B2583A88C2584A82A
:103E30008D2585A88E2586A88F2587A8932588A8F7
:103E4000942589A895258AA8A025F6A1A125F5A1E4
:103E5000B225F8A1B325F7A1BC258BA8BD258CA858
:103E6000C625F4A1C725F3A1CB25F0A1CE25F2A14B
:103E7000CF25F1A1E2258DA8E3258EA8E4258FA802
:103E8000E52590A80526EFA10626EEA1092691A812
:103E90004026E2A14226E1A10030A1A10130A2A169
:103EA0000230A3A10330A8A10530A9A1063065A95D
:103EB000073096A90830B4A10930B5A10A30B6A1DF
:103EC0000B30B7A10C30B8A10D30B9A10E30BAA19A
:103ED0000F30BBA11030BEA11130BFA1123093A88A
:103EE0001330FEA11430B2A11530B3A11630BCA11D
:103EF0001730BDA11D3094A81E3095A8213040A9CF
:103F0000223041A9233042A9243043A9253044A9B5
:103F1000263045A9273046A9283047A9293048A985
:103F20004130A1A44230A2A44330A3A44430A4A4AD
:103F30004530A5A44630A6A44730A7A44830A8A47D
:103F40004930A9A44A30AAA44B30ABA44C30ACA44D
:103F50004D30ADA44E30AEA44F30AFA45030B0A41D
:103F60005130B1A45230B2A45330B3A45430B4A4ED
:103F70005530B5A45630B6A45730B7A45830B8A4BD
:103F80005930B9A45A30BAA45B30BBA45C30BCA48D
:103F90005D30BDA45E30BEA45F30BFA46030C0A45D
:103FA0006130C1A46230C2A46330C3A46430C4A42D
:103FB0006530C5A46630C6A46730C7A46830C8A4FD
:103FC0006930C9A46A30CAA46B30CBA46C30CCA4CD
:103FD0006D30CDA46E30CEA46F30CFA47030D0A49D
:103FE0007130D1A47230D2A47330D3A47430D4A46D
:103FF0007530D5A47630D6A47730D7A47830D8A43D
:104000007930D9A47A30DAA47B30DBA47C30DCA40C
:104010007D30DDA47E30DEA47F30DFA48030E0A4DC
:104020008130E1A48230E2A48330E3A48430E4A4AC
:104030008530E5A48630E6A48730E7A48830E8A47C
:104040008930E9A48A30EAA48B30EBA48C30ECA44C
:104050008D30EDA48E30EEA48F30EFA49030F0A41C
:104060009130F1A49230F2A49330F3A49B3061A973
:104070009C3062A99D3066A99E3067A9A130A1A598
:10408000A230A2A5A330A3A5A430A4A5A530A5A5C0
:10409000A630A6A5A730A7A5A830A8A5A930A9A590
:1040A000AA30AAA5AB30ABA5AC30ACA5AD30ADA560
:1040B000AE30AEA5AF30AFA5B030B0A5B130B1A530
:1040C000B230B2A5B330B3A5B430B4A5B530B5A500
:1040D000B630B6A5B730B7A5B830B8A5B930B9A5D0
:1040E000BA30BAA5BB30BBA5BC30BCA5BD30BDA5A0
:1040F000BE30BEA5BF30BFA5C030C0A5C130C1A570
:10410000C230C2A5C330C3A5C430C4A5C530C5A53F
:10411000C630C6A5C730C7A5C830C8A5C930C9A50F
:10412000CA30CAA5CB30CBA5CC30CCA5CD30CDA5DF
:10413000CE30CEA5CF30CFA5D030D0A5D130D1A5AF
:10414000D230D2A5D330D3A5D430D4A5D530D5A57F
:10415000D630D6A5D730D7A5D830D8A5D930D9A54F
:10416000DA30DAA5DB30DBA5DC30DCA5DD30DDA51F
:10417000DE30DEA5DF30DFA5E030E0A5E130E1A5EF
:10418000E230E2A5E330E3A5E430E4A5E530E5A5BF
:10419000E630E6A5E730E7A5E830E8A5E930E9A58F
:1041A000EA30EAA5EB30EBA5EC30ECA5ED30EDA55F
:1041B000EE30EEA5EF30EFA5F030F0A5F130F1A52F
:1041C000F230F2A5F330F3A5F430F4A5F530F5A5FF
:1041D000F630F6A5FC3060A9FD3063A9FE3064A975
:1041E0000531C5A80631C6A80731C7A80831C8A837
:1041F0000931C9A80A31CAA80B31CBA80C31CCA807
:104200000D31CDA80E31CEA80F31CFA81031D0A8D6
:104210001131D1A81231D2A81331D3A81431D4A8A6
:104220001531D5A81631D6A81731D7A81831D8A876
:104230001931D9A81A31DAA81B31DBA81C31DCA846
:104240001D31DDA81E31DEA81F31DFA82031E0A816
:104250002131E1A82231E2A82331E3A82431E4A8E6
:104260002531E5A82631E6A82731E7A82831E8A8B6
:104270002931E9A82032E5A22132E6A22232E7A2C2
:104280002332E8A22432E9A22532EAA22632EBA2A6
:104290002732ECA22832EDA22932EEA231325AA9FD
:1042A000A33249A98E334AA98F334BA99C334CA919
:1042B0009D334DA99E334EA9A1334FA9C43350A9B4
:1042C000CE3351A9D13352A9D23353A9D53354A9EE
:1042D000004EBBD2014EA1B6024E4081034EDFC656
:1042E000044E4181054E4281064E4381074EF2CD78
:1042F000084EC9D5094EFDC80A4ECFC90B4EC2CFD4
:104300000C4EA2D80D4EBBB20E4EEBD30F4E4481D5
:10431000104EA4D8114EF3B3124E4581134EA8D7B8
:10432000144ED2C7154EA7D8164EC0CA174E468196
:10433000184EF0C7194EFBB11A4EB5D21B4ED4B46D
:104340001C4EABB61D4EBFCB1E4EA9D81F4E47818B
:10435000204E4881214E4981224EAAB6234E4A81E1
:10436000244EBDC1254ECFD1264E4B81274EA5C927
:10437000284EADD8294E4C812A4EF6B82B4EBED1D0
:104380002C4EDCE32D4ED0D62E4E4D812F4E4E813D
:10439000304EE1B7314E4F81324EAEB4334E508184
:1043A000344ED9C1354E5181364EBCD8374E52812C
:1043B000384EE8CD394EA4B53A4EAACE3B4EF7D68C
:1043C0003C4E53813D4EF6C03E4ED9BE3F4EAFD817
:1043D000404E5481414E5581424E5681434ECBC48E
:1043E000444E5781454EC3BE464E5881474EB1D8C4
:1043F000484EB4C3494EE5D24A4E59814B4EAED6D3
:104400004C4EDACE4D4EA7D54E4EF5BA4F4EA6B70E
:10441000504ED6C0514E5A81524EB9C6534ED2C597
:10442000544EC7C7554E5B81564ED4B9574E5C812A
:10443000584ECBB3594ED2D25A4E5D815B4E5E81FF
:104440005C4EBFD85D4EC5BE5E4EF2C65F4EB2D268
:10445000604EB0CF614EE7CF624E5F81634E6081A8
:10446000644E6181654E6281664EE9CA674E638122
:10447000684E6481694EC0D86A4E65816B4E668114
:104480006C4E67816D4E68816E4E69816F4E6A8198
:10449000704EF2C2714ED2C2724E6B81734EE9C839
:1044A000744E6C81754E6D81764E6E81774E6F8144
:1044B000784E7081794E71817A4E72817B4E738114
:1044C0007C4E74817D4E75817E4EACC77F4E768169
:1044D000804E7781814E7881824E7981834E7A81B8
:1044E000844E7B81854E7C81864ECBC1874E7D81FB
:1044F000884EE8D3894EF9D58A4E7E818B4EC2CA4A
:104500008C4EFEB68D4EA1D88E4EDAD38F4EF7BFAD
:10451000904E8081914EC6D4924EA5BB934EC1D889
:10452000944EE5CE954EAEBE964E8181974E8281D9
:10453000984EA8D8994E83819A4EC7D19B4EA9D048
:104540009C4E84819D4E85819E4E86819F4EBDD816
:10455000A04EEFD9A14EF6CDA24EBABFA34E878191
:10456000A44EBBBDA54EA5BAA64EE0D2A74EFAB248
:10457000A84EE0BAA94EB6C4AA4E8881AB4EEDCF84
:10458000AC4EA9BEAD4EA4CDAE4EC1C1AF4E8981D9
:10459000B04E8A81B14E8B81B24ED7C7B34EF1D99E
:1045A000B44E8C81B54EF4D9B64E8D81B74E8E8106
:1045B000B84E8F81B94E9081BA4ECBC8BB4EE9D868
:1045C000BC4E9181BD4E9281BE4E9381BF4EDAD2D8
:1045D000C04EB2CAC14ECAC8C24EECD8C34EEAD809
:1045E000C44EC6D8C54EF6BDC64ECDC6C74EF0B3F6
:1045F000C84E9481C94EEBD8CA4EF1BDCB4EE9BD31
:10460000CC4E9581CD4ED4C8CE4ED3B4CF4E9681EC
:10461000D04E9781D14ED8C2D24E9881D34ED6B2C9
:10462000D44ED0D7D54ECBCAD64EFBCBD74ECCD559
:10463000D84EB6B8D94EC9CFDA4E9981DB4E9A81A1
:10464000DC4E9B81DD4EDAD9DE4EF0D8DF4EAAC7B4
:10465000E04E9C81E14EEED8E24E9D81E34EFAB4ED
:10466000E44EEEC1E54ED4D2E64E9E81E74E9F81E8
:10467000E84EEDD8E94EA081EA4EC7D2EB4EEFD816
:10468000EC4EC7C3ED4EA181EE4EA281EF4EA38149
:10469000F04EF6D1F14EA481F24ED9D6F34EF2D8B7
:1046A000F44EA581F54EF5D8F64EFEBCF74EDBBCB8
:1046B000F84EA681F94EA781FA4EA881FB4ECEC8CE
:1046C000FC4EA981FD4EDDB7FE4EAA81FF4EC2B75A
:1046D000004FAB81014FF3C6024FAC81034FAD8158
:1046E000044FAE81054FAF81064FB081074FB181B6
:1046F000084FB281094FF8D80A4FC1D20B4FB3818E
:104700000C4FB4810D4FE9CE0E4FBFBC0F4FFCB71D
:10471000104FA5B7114FDDD0124FB581134FB681A1
:10472000144FB781154FB881164FB981174FDAD69C
:10473000184FC5D3194FEFBB1A4FE1BB1B4FF1D830
:104740001C4FBA811D4FBB811E4FA1C91F4FB0CE58
:10475000204FABB4214FBC81224FF3D8234FBD81F2
:10476000244FCBC9254FF6D8264FD7C2274FF7D8AD
:10477000284FBE81294FBF812A4FB1CE2B4FF9D888
:104780002C4FC0812D4FC1812E4FC2812F4FAEB211
:10479000304FC0B9314FC381324FA3D9334FC48199
:1047A000344FE9B0354FC581364FE6C1374FC6812A
:1047B000384FECC9394FC7813A4FC5CB3B4FC88101
:1047C0003C4FC6CB3D4FA4D93E4FC9813F4FCA8114
:1047D000404FCB81414FCC81424FCD81434FE8B513
:1047E000444FCE81454FCF81464FABB5474FD08127
:1047F000484FD181494FD2814A4FD3814B4FD48109
:104800004C4FD5814D4FBBCE4E4FCDB54F4FA1D75D
:10481000504FF4D7514FD3D3524FD681534FE5CC9D
:10482000544FD781554FCEBA564FD881574FA2D942
:10483000584FDCD9594FE0D35A4FFDD85B4FF0B7F2
:104840005C4FF7D75D4FFED85E4FFAD85F4FA1D9C6
:10485000604FE3C4614FD981624FDA81634FB6D3B1
:10486000644FF4D8654FDDD9664FDB81674FFBD8C5
:10487000684FDC81694FE5C56A4FDD816B4FDE8192
:104880006C4FD0C06D4FDF816E4FE0816F4FF0D124
:10489000704FDBB0714FE181724FE281734FD1BC39
:1048A000744FA6D9754FE381764FA5D9774FE48130
:1048B000784FE581794FE6817A4FE7817B4FACD91C
:1048C0007C4FAED97D4FE8817E4FABD97F4FB9CABF
:1048D000804FE981814FEA81824FEB81834FA9D9D3
:1048E000844FB6D6854FEC81864FED81874FEE81A0
:1048F000884FDEB3894FA8D98A4FEF818B4FFDC017
:104900008C4FF0818D4FCCCA8E4FF1818F4FAAD939
:10491000904FF281914FA7D9924FF381934FF48139
:10492000944FB0D9954FF581964FF681974FB1B618
:10493000984FF781994FF8819A4FF9819B4FA9B908
:104940009C4FFA819D4FC0D29E4FFB819F4FFC81AF
:10495000A04FC0CFA14FFD81A24FFE81A34FC2C285
:10496000A44F4082A54FC4BDA64FECD5A74FE0B2DF
:10497000A84FC8C7A94FEBBFAA4FADD9AB4F4182D3
:10498000AC4FAFD9AD4F4282AE4FEACEAF4FEEBA89
:10499000B04F4382B14F4482B24F4582B34F4682FB
:1049A000B44F4782B54FD6C7B64F4882B74F4982FA
:1049B000B84F4A82B94F4B82BA4F4C82BB4F4D829F
:1049C000BC4F4E82BD4F4F82BE4F5082BF4FE3B1AE
:1049D000C04F5182C14F5282C24F5382C34FD9B48C
:1049E000C44FEDB6C54FB4D9C64F5482C74F558298
:1049F000C84F5682C94F5782CA4FA1BFCB4F58826A
:104A0000CC4F5982CD4F5A82CE4FDED9CF4FCEC731
:104A1000D04FFEC0D14FB8D9D24F5B82D34F5C820A
:104A2000D44F5D82D54F5E82D64F5F82D74FD7CBB2
:104A3000D84FFDB7D94F6082DA4FB5D9DB4F6182CD
:104A4000DC4FB7D9DD4FA3B1DE4FE1D3DF4FB9D98A
:104A5000E04F6282E14FC5D0E24F6382E34FB6D9A7
:104A6000E44F6482E54F6582E64FB1D9E74F668235
:104A7000E84FB2D9E94FA9C1EA4FB3D9EB4F6782EA
:104A8000EC4F6882ED4FF3BCEE4FDED0EF4FA9B88C
:104A9000F04F6982F14FE3BEF24F6A82F34FBDD906
:104AA000F44F6B82F54F6C82F64F6D82F74F6E823A
:104AB000F84FBAD9F94F6F82FA4FB3B0FB4F7082FB
:104AC000FC4F7182FD4F7282FE4FC2D9FF4F73823D
:104AD00000507482015075820250768203507782B2
:104AE000045078820550798206507A8207507B8282
:104AF00008507C8209507D820A507E820B50808251
:104B00000C50C4D90D50B6B10E5081820F50BFD990
:104B100010508282115083821250B9B51350848292
:104B20001450F3BE15508582165086821750878226
:104B30001850C8CC1950F2BA1A50D0D21B508882E3
:104B40001C50C3D91D5089821E508A821F50E8BD57
:104B500020508B822150ABB322508C8223508D8207
:104B600024508E822550C5D92650EBBE27508F8207
:104B70002850C6D92950BBD92A50DFC42B50908267
:104B80002C50BED92D50C1D92E50C0D92F50918252
:104B900030509282315093823250948233509582B9
:104BA0003450968235509782365098823750998289
:104BB00038509A8239509B823A50AED53B509C82F5
:104BC0003C50B5D63D509D823E50E3C73F509E823B
:104BD00040509F824150A0824250A1824350C8D988
:104BE0004450A2824550A3824650A4824750D9BC6B
:104BF0004850CAD94950A5824A50A6824B50A78234
:104C00004C50BCD94D50A8824E50CBD94F50ABC65A
:104C10005050A9825150AA825250AB825350AC825C
:104C20005450AD825550C9D95650AE825750AF82BC
:104C30005850B0825950B1825A50F6D75B50B28268
:104C40005C50A3CD5D50B3825E50B4825F50B5829C
:104C50006050B6826150B7826250B8826350B982A8
:104C60006450BA826550A1BD6650BB826750BC8259
:104C70006850BD826950BE826A50BF826B50C0824C
:104C80006C50CCD96D50C1826E50C2826F50C382BD
:104C90007050C4827150C5827250C6827350C782F0
:104CA0007450C8827550C9827650BCC57750B5CD56
:104CB0007850CA827950CB827A50CC827B50CDD941
:104CC0007C50CD827D50CE827E50C7D97F50A5B317
:104CD0008050FEBF8150CF828250D0828350D182DB
:104CE0008450D2828550B5B88650D3828750D48202
:104CF0008850FCC08950D5828A50D6828B50D7828A
:104D00008C50D8828D50F8B08E50D9828F50DA8274
:104D10009050DB829150DC829250DD829350DE8293
:104D20009450DF829550E0829650E1829750E28263
:104D30009850E3829950E4829A50E5829B50E68233
:104D40009C50E7829D50E8829E50E9829F50EA8203
:104D5000A050EB82A150EC82A250ED82A350F6B499
:104D6000A450EE82A550CED9A650EF82A750CFD93D
:104D7000A850A2B4A950D0D9AA50F082AB50F18269
:104D8000AC50DFB4AD50F282AE50F382AF50F4823B
:104D9000B050F582B150F682B250C1B0B350F78234
:104DA000B450F882B550F982B650FA82B750FB82FF
:104DB000B850FC82B950FD82BA50D1D9BB50B5C9A8
:104DC000BC50FE82BD504083BE504183BF504283E1
:104DD000C0504383C1504483C2504583C35046836F
:104DE000C4504783C5504883C6504983C7504A833F
:104DF000C8504B83C9504C83CA504D83CB504E830F
:104E0000CC504F83CD505083CE505183CF50F1CFF3
:104E1000D0505283D1505383D2505483D3505583B2
:104E2000D4505683D5505783D650D2D9D7505883B3
:104E3000D8505983D9505A83DA50C5C1DB505B83AF
:104E4000DC505C83DD505D83DE505E83DF505F832A
:104E5000E0506083E1506183E2506283E3506383FA
:104E6000E4506483E5506583E650D6D9E750AEC977
:104E7000E8506683E9506783EA506883EB506983A2
:104E8000EC50D5D9ED50D4D9EE50D7D9EF506A8334
:104E9000F0506B83F1506C83F2506D83F350DBCB99
:104EA000F4506E83F550A9BDF6506F83F7507083B0
:104EB000F8507183F9507283FA507383FB50A7C680
:104EC000FC507483FD507583FE507683FF507783CA
:104ED000005178830151798302517A8303517B8396
:104EE00004517C8305517D830651D3D90751D8D90C
:104EF00008517E83095180830A5181830B51D9D98E
:104F00000C5182830D5183830E5184830F5185830D
:104F100010518683115187831251E5C8135188833C
:104F20001451898315518A8316518B8317518C83B1
:104F300018518D8319518E831A518F831B51908381
:104F40001C5191831D5192831E5193831F51948351
:104F5000205195832151DCC02251968323519783A0
:104F6000245198832551998326519A8327519B83F5
:104F700028519C8329519D832A519E832B519F83C5
:104F80002C51A0832D51A1832E51A2832F51A38395
:104F90003051A4833151A5833251A6833351A78365
:104FA0003451A8833551A9833651AA833751AB8335
:104FB0003851AC833951AD833A51AE833B51AF8305
:104FC0003C51B0833D51B1833E51B2833F51F9B65C
:104FD0004051A3D84151CAD44251B3834351AAD4BA
:104FE0004451D6D04551E4B34651D7D54751B48347
:104FF0004851C8CF4951E2B94A51B5834B51CBBF53
:105000004C51B6834D51E2C34E51B7834F51B883D3
:105010005051B9835151D2B65251BA835351BB83C7
:105020005451C3CD5551EED95651F0D95751BC8387
:105030005851BD835951BE835A51B3B55B51BF839B
:105040005C51B5B65D51C0835E51C1835F51C2836F
:105050006051C3836151C4836251A4BE6351C5834F
:105060006451C6836551EBC86651C7836751C883D5
:105070006851ABC86951C9836A51CA836B51CBB0BF
:105080006C51ABB96D51F9C16E51E2D96F51CB83FF
:105090007051BCC07151B2B97251CC837351D8B93F
:1050A0007451CBD07551F8B17651E4C67751DFBE5B
:1050B0007851E4B57951C8D77A51CD837B51F8D175
:1050C0007C51E6BC7D51DECA7E51CE837F51CF83B9
:1050D0008051BDBC8151E6D98251E7D88351D0833C
:1050E0008451D1838551DAC48651D2838751D383C9
:1050F0008851D4B88951BDC88A51D4838B51D58386
:105100008C51E1B28D51D9D48E51D6838F51D78332
:105110009051D8839151D9839251B0C39351DA837E
:105120009451DB839551E1C39651A2DA9751DFC8C0
:105130009851DC839951B4D09A51DD839B51FCBEC8
:105140009C51A9C59D51DE839E51DF839F51E08311
:10515000A051DAB9A151E183A251A3DAA351E283AC
:10516000A451A9D4A551A4DAA651E383A751E4839D
:10517000A851E583A951E683AA51E783AB51FBD936
:10518000AC51ACB6AD51E883AE51E983AF51EBB74A
:10519000B051F9B1B151FCD9B251E5B3B351F6BE3A
:1051A000B451EA83B551F6BFB651B1D2B751E4C09C
:1051B000B851EB83B951EC83BA51ED83BB51B3B60F
:1051C000BC51FED9BD51FDD9BE51EE83BF51EF8315
:1051D000C051BBBEC151F083C251F183C351F283B0
:1051E000C451E0C6C551F383C651BCD7C751A1DA3B
:1051F000C851F483C951B9C1CA51F583CB51F2B535
:10520000CC51E8C1CD51F683CE51F783CF51F5BCD7
:10521000D051F883D151D5B4D251F983D351FA8307
:10522000D451FB83D551FC83D651FD83D751FE83E6
:10523000D8514084D9514184DA514284DB51DDC1D7
:10524000DC514384DD51FDC4DE514484DF5145848B
:10525000E051B8BCE151B2B7E2514684E351478412
:10526000E451EFB7E5514884E6514984E7514A8457
:10527000E8514B84E9514C84EA514D84EB51ECD90F
:10528000EC514E84ED51BEC6EE514F84EF51ADBF8F
:10529000F051CBBBF1515084F2515184F351CAB556
:1052A000F4515284F551C9DBF651D7D0F7515384EC
:1052B000F851B9CDF951BCB0FA51F6B3FB51F7BB77
:1052C000FC51CADBFD51AFBAFE515484FF51E4D406
:1052D0000052B6B50152F3B50252D6D80352D0C827
:1052E00004525584055256840652D6B70752D0C789
:1052F0000852D7D8095257840A52AFBF0B5258846C
:105300000C5259840D52BBDB0E52D8D80F525A841E
:1053100010525B841152CCD01252AEBB13525C843B
:1053200014525D8415525E841652BEEB1752D0C1E2
:105330001852F5C11952F2D41A52D5B81B52B4B44E
:105340001C525F841D52F5B31E5260841F5261844B
:105350002052BEC921526284225263842352648443
:105360002452D0C52552658426526684275267840C
:105370002852D9C52952FBC02A5268842B52F0B159
:105380002C5269842D52D9D82E52CEB92F526A840C
:105390003052BDB531526B8432526C843352DAD8FC
:1053A00034526D8435526E843652C6D63752A2CBF3
:1053B0003852AFC83952B2C93A52CCB43B52CCBFC2
:1053C0003C526F843D52F4B93E5270843F52DBD858
:1053D0004052DCD84152E7B64252C1BC4352EACCFB
:1053E0004452718445527284465273844752748485
:1053F00048527584495276844A52F7CF4B5277848B
:105400004C52DDD84D52B0C74E5278844F527984F9
:105410005052D0B95152A3BD52527A8453527B8418
:105420005452DECC55527C845652CAC657527D84A3
:1054300058527E84595280845A5281845B528284AD
:105440005C52E0D85D5283845E52DED85F52848421
:10545000605285846152DFD86252868463528784A9
:10546000645288846552FEB0665289846752E7BEF2
:1054700068528A846952A3CA6A52F4BC6B528B8404
:105480006C528C846D528D846E528E846F52B1B882
:1054900070528F84715290847252EEB8735291841C
:1054A0007452928475529384765294847752958480
:1054B00078529684795297847A5298847B52998450
:1054C0007C529A847D52E2D87E529B847F52CBBD1F
:1054D00080529C848152E4D88252E3D883529D84C6
:1054E00084529E8485529F848652A0848752A184D0
:1054F0008852FCC58952A2848A52A3848B52A48408
:105500008C52A5848D52A6848E52A7848F52A88473
:105510009052E5D89152A9849252AA849352E6D827
:105520009452AB849552AC849652AD849752AE841B
:105530009852AF849952B0849A52B1849B52A6C1BA
:105540009C52B2849D52B0C89E52ECB09F52A6B9F4
:10555000A052D3BCA152F1CEA252BDDBA352D3C103
:10556000A452B384A552B484A652B584A752B6847B
:10557000A852AFB6A952FAD6AA52ACC5AB52D9BD01
:10558000AC52BEDBAD52BFDBAE52B784AF52B88473
:10559000B052B984B152F8C0B252A2BEB352CDC01B
:1055A000B452BA84B552BB84B652BC84B752BD84DF
:1055B000B852BE84B952BF84BA52C084BB52C184AF
:1055C000BC52C284BD52C384BE52C0DBBF52C6CAE5
:1055D000C052C484C152C584C252C684C352AAB246
:1055E000C452C784C552C884C652C984C752C2D3E4
:1055F000C852CA84C952E3C3CA52CB84CB52ABD17E
:10560000CC52CC84CD52CD84CE52CE84CF52CF84D6
:10561000D052C2DBD152D084D252D5C0D352D18421
:10562000D452D284D552D384D652C3DBD752D48439
:10563000D852B1BFD952D584DA52D684DB52D7843E
:10564000DC52D884DD52D984DE52DA84DF52BCC405
:10565000E052DB84E152DC84E252DD84E352DE84FA
:10566000E452DAC7E552DF84E652E084E752E1848F
:10567000E852E284E952E384EA52E484EB52E5849E
:10568000EC52E684ED52E784EE52E884EF52E9846E
:10569000F052C4DBF152EA84F252EB84F352EC8410
:1056A000F452ED84F552EE84F652EF84F752F08412
:1056B000F852F184F952E8D9FA52D7C9FB52F28470
:1056C000FC52F384FD52F484FE52B4B9FF52F0CE82
:1056D0000053C8D40153F5840253F6840353F7846E
:1056E0000453F8840553FCB00653D2B40753F9842D
:1056F0000853D9D00953FA840A53FB840B53FC8412
:105700000C53FD840D53E9D90E53FE840F53CBDEA9
:105710001053EBD9115340851253418513534285E1
:10572000145343851553B0D81653AFBB1753B1B1BB
:10573000185344851953D7B31A53CED81B534585F4
:105740001C5346851D53D1D41E5347851F5348858E
:105750002053B3BD2153EFBF225349852353BBCF01
:1057600024534A8525534B852653D0D827534C853F
:1057700028534D8529534E852A53CBB72B534F853C
:105780002C5350852D5351852E53D1D82F535285EC
:105790003053538531535485325355853353568591
:1057A00034535785355358853653598537535A8561
:1057B00038535B853953A5C63A53F8C73B53BDD21E
:1057C0003C535C853D535D853E53D2D83F53E4C482
:1057D00040535E854153AECA42535F854353A7C7CA
:1057E000445360854553A6D8465361854753FDC948
:1057F0004853E7CE4953DCBB4A53EBB04B53628569
:105800004C5363854D5364854E53AABB4F53ADD063
:10581000505365855153B0B15253E4D75353BFD75A
:10582000545366855553A5B55653F4C25753CFC448
:1058300058536785595368855A53A9B25B53698594
:105840005C53B7B25D536A855E53E5B15F53B2DF17
:105850006053BCD56153A8BF6253ACC26353D5D863
:105860006453B1C265536B856653D4D86753D4CEA5
:1058700068536C856953E0DA6A536D856B53C0CE0B
:105880006C536E856D536F856E53B4D86F53AEC332
:105890007053A1D37153A3CE725370857353B4BCAC
:1058A0007453B4C87553D1C2765371857753EDBE26
:1058B0007853B6D0795372857A53E1DA7B53738586
:1058C0007C5374857D5375857E5376857F53E4C7FD
:1058D00080537785815378858253A7B38353798525
:1058E0008453F2B68553FCCC8653FAC087537A852D
:1058F00088537B858953F7C08A537C858B53B9D1F4
:105900008C53E1D18D53C7D88E537D858F537E85BF
:1059100090538085915381859253828593538385DB
:10592000945384859553DEB2965385859753868527
:105930009853E5C0995387859A53F1BA9B5388854C
:105940009C5389859D53C8D89E538A859F53ADD457
:10595000A0538B85A1538C85A253E1CFA353C9D803
:10596000A4538D85A553CAD8A653C3CFA7538E85FC
:10597000A853F8B3A953C7BEAA538F85AB539085DC
:10598000AC539185AD539285AE53CBD8AF5393852D
:10599000B0539485B1539585B2539685B35397858B
:1059A000B4539885B5539985B653CCDBB7539A85D4
:1059B000B8539B85B9539C85BA539D85BB53A5C8E5
:1059C000BC539E85BD539F85BE53A085BF53D8CF82
:1059D000C053A185C153FEC8C253CEB2C353A285E2
:1059E000C453A385C553A485C653A585C753A685AF
:1059F000C853D6D3C953E6B2CA53B0BCCB53D1D3E4
:105A0000CC53ABCBCD53B4B7CE53A785CF53A885DA
:105A1000D053A985D153A2B7D253AA85D353AB850E
:105A2000D453E5CAD553AC85D653A1C8D753DCCAE5
:105A3000D853E4B1D953F0D0DA53AD85DB53D1C597
:105A4000DC53AE85DD53AF85DE53B085DF53C5DB58
:105A5000E053FEB5E153B185E253B285E353DABFBB
:105A6000E453C5B9E553E4BEE653EDC1E753B3854E
:105A7000E853B6DFE953B5DFEA53BBD6EB53D0BDED
:105A8000EC53D9D5ED53C8B0EE53A3B6EF53C9BF0D
:105A9000F053A8CCF153B3DFF253B7CAF353D2D3C8
:105AA000F453B485F553CFD8F653B6D2F753C5BAED
:105AB000F853BECBF953BECCFA53B585FB53B7DFD1
:105AC000FC53F0B5FD53B4DFFE53B685FF53B785E5
:105AD0000054B8850154F5D30254B9850354D4B3A6
